{
  "_format": "hh-sol-artifact-1",
  "contractName": "ExhaustedElephants",
  "sourceName": "contracts/SmartContract.sol",
  "abi": [
    {
      "inputs": [
        {
          "internalType": "string",
          "name": "_name",
          "type": "string"
        },
        {
          "internalType": "string",
          "name": "_symbol",
          "type": "string"
        },
        {
          "internalType": "string",
          "name": "_initBaseURI",
          "type": "string"
        },
        {
          "internalType": "string",
          "name": "_initNotRevealedUri",
          "type": "string"
        }
      ],
      "stateMutability": "nonpayable",
      "type": "constructor"
    },
    {
      "anonymous": false,
      "inputs": [
        {
          "indexed": true,
          "internalType": "address",
          "name": "owner",
          "type": "address"
        },
        {
          "indexed": true,
          "internalType": "address",
          "name": "approved",
          "type": "address"
        },
        {
          "indexed": true,
          "internalType": "uint256",
          "name": "tokenId",
          "type": "uint256"
        }
      ],
      "name": "Approval",
      "type": "event"
    },
    {
      "anonymous": false,
      "inputs": [
        {
          "indexed": true,
          "internalType": "address",
          "name": "owner",
          "type": "address"
        },
        {
          "indexed": true,
          "internalType": "address",
          "name": "operator",
          "type": "address"
        },
        {
          "indexed": false,
          "internalType": "bool",
          "name": "approved",
          "type": "bool"
        }
      ],
      "name": "ApprovalForAll",
      "type": "event"
    },
    {
      "anonymous": false,
      "inputs": [
        {
          "indexed": true,
          "internalType": "address",
          "name": "previousOwner",
          "type": "address"
        },
        {
          "indexed": true,
          "internalType": "address",
          "name": "newOwner",
          "type": "address"
        }
      ],
      "name": "OwnershipTransferred",
      "type": "event"
    },
    {
      "anonymous": false,
      "inputs": [
        {
          "indexed": true,
          "internalType": "address",
          "name": "from",
          "type": "address"
        },
        {
          "indexed": true,
          "internalType": "address",
          "name": "to",
          "type": "address"
        },
        {
          "indexed": true,
          "internalType": "uint256",
          "name": "tokenId",
          "type": "uint256"
        }
      ],
      "name": "Transfer",
      "type": "event"
    },
    {
      "inputs": [
        {
          "internalType": "address",
          "name": "to",
          "type": "address"
        },
        {
          "internalType": "uint256",
          "name": "tokenId",
          "type": "uint256"
        }
      ],
      "name": "approve",
      "outputs": [],
      "stateMutability": "nonpayable",
      "type": "function"
    },
    {
      "inputs": [
        {
          "internalType": "address",
          "name": "owner",
          "type": "address"
        }
      ],
      "name": "balanceOf",
      "outputs": [
        {
          "internalType": "uint256",
          "name": "",
          "type": "uint256"
        }
      ],
      "stateMutability": "view",
      "type": "function"
    },
    {
      "inputs": [],
      "name": "baseExtension",
      "outputs": [
        {
          "internalType": "string",
          "name": "",
          "type": "string"
        }
      ],
      "stateMutability": "view",
      "type": "function"
    },
    {
      "inputs": [],
      "name": "baseURI",
      "outputs": [
        {
          "internalType": "string",
          "name": "",
          "type": "string"
        }
      ],
      "stateMutability": "view",
      "type": "function"
    },
    {
      "inputs": [],
      "name": "cost",
      "outputs": [
        {
          "internalType": "uint256",
          "name": "",
          "type": "uint256"
        }
      ],
      "stateMutability": "view",
      "type": "function"
    },
    {
      "inputs": [
        {
          "internalType": "uint256",
          "name": "tokenId",
          "type": "uint256"
        }
      ],
      "name": "getApproved",
      "outputs": [
        {
          "internalType": "address",
          "name": "",
          "type": "address"
        }
      ],
      "stateMutability": "view",
      "type": "function"
    },
    {
      "inputs": [
        {
          "internalType": "address",
          "name": "owner",
          "type": "address"
        },
        {
          "internalType": "address",
          "name": "operator",
          "type": "address"
        }
      ],
      "name": "isApprovedForAll",
      "outputs": [
        {
          "internalType": "bool",
          "name": "",
          "type": "bool"
        }
      ],
      "stateMutability": "view",
      "type": "function"
    },
    {
      "inputs": [],
      "name": "maxMintAmount",
      "outputs": [
        {
          "internalType": "uint256",
          "name": "",
          "type": "uint256"
        }
      ],
      "stateMutability": "view",
      "type": "function"
    },
    {
      "inputs": [],
      "name": "maxSupply",
      "outputs": [
        {
          "internalType": "uint256",
          "name": "",
          "type": "uint256"
        }
      ],
      "stateMutability": "view",
      "type": "function"
    },
    {
      "inputs": [
        {
          "internalType": "address",
          "name": "_to",
          "type": "address"
        },
        {
          "internalType": "uint256",
          "name": "_mintAmount",
          "type": "uint256"
        }
      ],
      "name": "mint",
      "outputs": [],
      "stateMutability": "payable",
      "type": "function"
    },
    {
      "inputs": [],
      "name": "name",
      "outputs": [
        {
          "internalType": "string",
          "name": "",
          "type": "string"
        }
      ],
      "stateMutability": "view",
      "type": "function"
    },
    {
      "inputs": [],
      "name": "notRevealedUri",
      "outputs": [
        {
          "internalType": "string",
          "name": "",
          "type": "string"
        }
      ],
      "stateMutability": "view",
      "type": "function"
    },
    {
      "inputs": [],
      "name": "owner",
      "outputs": [
        {
          "internalType": "address",
          "name": "",
          "type": "address"
        }
      ],
      "stateMutability": "view",
      "type": "function"
    },
    {
      "inputs": [
        {
          "internalType": "uint256",
          "name": "tokenId",
          "type": "uint256"
        }
      ],
      "name": "ownerOf",
      "outputs": [
        {
          "internalType": "address",
          "name": "",
          "type": "address"
        }
      ],
      "stateMutability": "view",
      "type": "function"
    },
    {
      "inputs": [
        {
          "internalType": "bool",
          "name": "_state",
          "type": "bool"
        }
      ],
      "name": "pause",
      "outputs": [],
      "stateMutability": "nonpayable",
      "type": "function"
    },
    {
      "inputs": [],
      "name": "paused",
      "outputs": [
        {
          "internalType": "bool",
          "name": "",
          "type": "bool"
        }
      ],
      "stateMutability": "view",
      "type": "function"
    },
    {
      "inputs": [
        {
          "internalType": "address",
          "name": "_user",
          "type": "address"
        }
      ],
      "name": "removeWhitelistUser",
      "outputs": [],
      "stateMutability": "nonpayable",
      "type": "function"
    },
    {
      "inputs": [],
      "name": "renounceOwnership",
      "outputs": [],
      "stateMutability": "nonpayable",
      "type": "function"
    },
    {
      "inputs": [],
      "name": "reveal",
      "outputs": [],
      "stateMutability": "nonpayable",
      "type": "function"
    },
    {
      "inputs": [],
      "name": "revealed",
      "outputs": [
        {
          "internalType": "bool",
          "name": "",
          "type": "bool"
        }
      ],
      "stateMutability": "view",
      "type": "function"
    },
    {
      "inputs": [
        {
          "internalType": "address",
          "name": "from",
          "type": "address"
        },
        {
          "internalType": "address",
          "name": "to",
          "type": "address"
        },
        {
          "internalType": "uint256",
          "name": "tokenId",
          "type": "uint256"
        }
      ],
      "name": "safeTransferFrom",
      "outputs": [],
      "stateMutability": "nonpayable",
      "type": "function"
    },
    {
      "inputs": [
        {
          "internalType": "address",
          "name": "from",
          "type": "address"
        },
        {
          "internalType": "address",
          "name": "to",
          "type": "address"
        },
        {
          "internalType": "uint256",
          "name": "tokenId",
          "type": "uint256"
        },
        {
          "internalType": "bytes",
          "name": "_data",
          "type": "bytes"
        }
      ],
      "name": "safeTransferFrom",
      "outputs": [],
      "stateMutability": "nonpayable",
      "type": "function"
    },
    {
      "inputs": [
        {
          "internalType": "address",
          "name": "operator",
          "type": "address"
        },
        {
          "internalType": "bool",
          "name": "approved",
          "type": "bool"
        }
      ],
      "name": "setApprovalForAll",
      "outputs": [],
      "stateMutability": "nonpayable",
      "type": "function"
    },
    {
      "inputs": [
        {
          "internalType": "string",
          "name": "_newBaseExtension",
          "type": "string"
        }
      ],
      "name": "setBaseExtension",
      "outputs": [],
      "stateMutability": "nonpayable",
      "type": "function"
    },
    {
      "inputs": [
        {
          "internalType": "string",
          "name": "_newBaseURI",
          "type": "string"
        }
      ],
      "name": "setBaseURI",
      "outputs": [],
      "stateMutability": "nonpayable",
      "type": "function"
    },
    {
      "inputs": [
        {
          "internalType": "uint256",
          "name": "_newCost",
          "type": "uint256"
        }
      ],
      "name": "setCost",
      "outputs": [],
      "stateMutability": "nonpayable",
      "type": "function"
    },
    {
      "inputs": [
        {
          "internalType": "string",
          "name": "_notRevealedURI",
          "type": "string"
        }
      ],
      "name": "setNotRevealedURI",
      "outputs": [],
      "stateMutability": "nonpayable",
      "type": "function"
    },
    {
      "inputs": [
        {
          "internalType": "uint256",
          "name": "_newmaxMintAmount",
          "type": "uint256"
        }
      ],
      "name": "setmaxMintAmount",
      "outputs": [],
      "stateMutability": "nonpayable",
      "type": "function"
    },
    {
      "inputs": [
        {
          "internalType": "bytes4",
          "name": "interfaceId",
          "type": "bytes4"
        }
      ],
      "name": "supportsInterface",
      "outputs": [
        {
          "internalType": "bool",
          "name": "",
          "type": "bool"
        }
      ],
      "stateMutability": "view",
      "type": "function"
    },
    {
      "inputs": [],
      "name": "symbol",
      "outputs": [
        {
          "internalType": "string",
          "name": "",
          "type": "string"
        }
      ],
      "stateMutability": "view",
      "type": "function"
    },
    {
      "inputs": [
        {
          "internalType": "uint256",
          "name": "index",
          "type": "uint256"
        }
      ],
      "name": "tokenByIndex",
      "outputs": [
        {
          "internalType": "uint256",
          "name": "",
          "type": "uint256"
        }
      ],
      "stateMutability": "view",
      "type": "function"
    },
    {
      "inputs": [
        {
          "internalType": "address",
          "name": "owner",
          "type": "address"
        },
        {
          "internalType": "uint256",
          "name": "index",
          "type": "uint256"
        }
      ],
      "name": "tokenOfOwnerByIndex",
      "outputs": [
        {
          "internalType": "uint256",
          "name": "",
          "type": "uint256"
        }
      ],
      "stateMutability": "view",
      "type": "function"
    },
    {
      "inputs": [
        {
          "internalType": "uint256",
          "name": "tokenId",
          "type": "uint256"
        }
      ],
      "name": "tokenURI",
      "outputs": [
        {
          "internalType": "string",
          "name": "",
          "type": "string"
        }
      ],
      "stateMutability": "view",
      "type": "function"
    },
    {
      "inputs": [],
      "name": "totalSupply",
      "outputs": [
        {
          "internalType": "uint256",
          "name": "",
          "type": "uint256"
        }
      ],
      "stateMutability": "view",
      "type": "function"
    },
    {
      "inputs": [
        {
          "internalType": "address",
          "name": "from",
          "type": "address"
        },
        {
          "internalType": "address",
          "name": "to",
          "type": "address"
        },
        {
          "internalType": "uint256",
          "name": "tokenId",
          "type": "uint256"
        }
      ],
      "name": "transferFrom",
      "outputs": [],
      "stateMutability": "nonpayable",
      "type": "function"
    },
    {
      "inputs": [
        {
          "internalType": "address",
          "name": "newOwner",
          "type": "address"
        }
      ],
      "name": "transferOwnership",
      "outputs": [],
      "stateMutability": "nonpayable",
      "type": "function"
    },
    {
      "inputs": [
        {
          "internalType": "address",
          "name": "_owner",
          "type": "address"
        }
      ],
      "name": "walletOfOwner",
      "outputs": [
        {
          "internalType": "uint256[]",
          "name": "",
          "type": "uint256[]"
        }
      ],
      "stateMutability": "view",
      "type": "function"
    },
    {
      "inputs": [
        {
          "internalType": "address",
          "name": "_user",
          "type": "address"
        }
      ],
      "name": "whitelistUser",
      "outputs": [],
      "stateMutability": "nonpayable",
      "type": "function"
    },
    {
      "inputs": [
        {
          "internalType": "address",
          "name": "",
          "type": "address"
        }
      ],
      "name": "whitelisted",
      "outputs": [
        {
          "internalType": "bool",
          "name": "",
          "type": "bool"
        }
      ],
      "stateMutability": "view",
      "type": "function"
    },
    {
      "inputs": [],
      "name": "withdraw",
      "outputs": [],
      "stateMutability": "payable",
      "type": "function"
    }
  ],
  "bytecode": "0x60c06040526005608081905264173539b7b760d91b60a09081526200002891600c91906200020e565b50666a94d74f430000600d55610d05600e55600a600f556010805461ffff191690553480156200005757600080fd5b5060405162002c7138038062002c718339810160408190526200007a916200035f565b835184908490620000939060009060208501906200020e565b508051620000a99060019060208401906200020e565b505050620000c6620000c0620000e660201b60201c565b620000ea565b620000d1826200013c565b620000dc81620001a4565b505050506200049b565b3390565b600a80546001600160a01b038381166001600160a01b0319831681179093556040519116919082907f8be0079c531659141344cd1fd0a4f28419497f9722a3daafe3b4186f6b6457e090600090a35050565b62000146620000e6565b6001600160a01b031662000159620001ff565b6001600160a01b0316146200018b5760405162461bcd60e51b8152600401620001829062000413565b60405180910390fd5b8051620001a090600b9060208401906200020e565b5050565b620001ae620000e6565b6001600160a01b0316620001c1620001ff565b6001600160a01b031614620001ea5760405162461bcd60e51b8152600401620001829062000413565b8051620001a09060119060208401906200020e565b600a546001600160a01b031690565b8280546200021c9062000448565b90600052602060002090601f0160209004810192826200024057600085556200028b565b82601f106200025b57805160ff19168380011785556200028b565b828001600101855582156200028b579182015b828111156200028b5782518255916020019190600101906200026e565b50620002999291506200029d565b5090565b5b808211156200029957600081556001016200029e565b600082601f830112620002c5578081fd5b81516001600160401b0380821115620002e257620002e262000485565b6040516020601f8401601f19168201810183811183821017156200030a576200030a62000485565b604052838252858401810187101562000321578485fd5b8492505b8383101562000344578583018101518284018201529182019162000325565b838311156200035557848185840101525b5095945050505050565b6000806000806080858703121562000375578384fd5b84516001600160401b03808211156200038c578586fd5b6200039a88838901620002b4565b95506020870151915080821115620003b0578485fd5b620003be88838901620002b4565b94506040870151915080821115620003d4578384fd5b620003e288838901620002b4565b93506060870151915080821115620003f8578283fd5b506200040787828801620002b4565b91505092959194509250565b6020808252818101527f4f776e61626c653a2063616c6c6572206973206e6f7420746865206f776e6572604082015260600190565b6002810460018216806200045d57607f821691505b602082108114156200047f57634e487b7160e01b600052602260045260246000fd5b50919050565b634e487b7160e01b600052604160045260246000fd5b6127c680620004ab6000396000f3fe60806040526004361061023b5760003560e01c806355f804b31161012e578063a475b5dd116100ab578063d936547e1161006f578063d936547e1461062d578063da3ef23f1461064d578063e985e9c51461066d578063f2c4ce1e1461068d578063f2fde38b146106ad5761023b565b8063a475b5dd146105ae578063b88d4fde146105c3578063c6682862146105e3578063c87b56dd146105f8578063d5abeb01146106185761023b565b8063715018a6116100f2578063715018a61461052f5780637f00c7a6146105445780638da5cb5b1461056457806395d89b4114610579578063a22cb4651461058e5761023b565b806355f804b3146104a55780635c975abb146104c55780636352211e146104da5780636c0360eb146104fa57806370a082311461050f5761023b565b80632f745c59116101bc578063438b630011610180578063438b63001461040357806344a0d68a146104305780634a4c560d146104505780634f6ccce71461047057806351830227146104905761023b565b80632f745c591461038857806330cc7ae0146103a85780633ccfd60b146103c857806340c10f19146103d057806342842e0e146103e35761023b565b8063095ea7b311610203578063095ea7b3146102fc57806313faede61461031c57806318160ddd1461033e578063239c70ae1461035357806323b872dd146103685761023b565b806301ffc9a71461024057806302329a291461027657806306fdde0314610298578063081812fc146102ba578063081c8c44146102e7575b600080fd5b34801561024c57600080fd5b5061026061025b366004611ef4565b6106cd565b60405161026d9190612110565b60405180910390f35b34801561028257600080fd5b50610296610291366004611eda565b6106fa565b005b3480156102a457600080fd5b506102ad610755565b60405161026d919061211b565b3480156102c657600080fd5b506102da6102d5366004611f72565b6107e7565b60405161026d919061207b565b3480156102f357600080fd5b506102ad61082a565b34801561030857600080fd5b50610296610317366004611eb1565b6108b8565b34801561032857600080fd5b50610331610950565b60405161026d919061262b565b34801561034a57600080fd5b50610331610956565b34801561035f57600080fd5b5061033161095c565b34801561037457600080fd5b50610296610383366004611dd4565b610962565b34801561039457600080fd5b506103316103a3366004611eb1565b61099a565b3480156103b457600080fd5b506102966103c3366004611d88565b6109ec565b610296610a4c565b6102966103de366004611eb1565b610afe565b3480156103ef57600080fd5b506102966103fe366004611dd4565b610bda565b34801561040f57600080fd5b5061042361041e366004611d88565b610bf5565b60405161026d91906120cc565b34801561043c57600080fd5b5061029661044b366004611f72565b610cb3565b34801561045c57600080fd5b5061029661046b366004611d88565b610cf7565b34801561047c57600080fd5b5061033161048b366004611f72565b610d5a565b34801561049c57600080fd5b50610260610db5565b3480156104b157600080fd5b506102966104c0366004611f2c565b610dc3565b3480156104d157600080fd5b50610260610e19565b3480156104e657600080fd5b506102da6104f5366004611f72565b610e22565b34801561050657600080fd5b506102ad610e57565b34801561051b57600080fd5b5061033161052a366004611d88565b610e64565b34801561053b57600080fd5b50610296610ea8565b34801561055057600080fd5b5061029661055f366004611f72565b610ef3565b34801561057057600080fd5b506102da610f37565b34801561058557600080fd5b506102ad610f46565b34801561059a57600080fd5b506102966105a9366004611e88565b610f55565b3480156105ba57600080fd5b50610296611023565b3480156105cf57600080fd5b506102966105de366004611e0f565b611073565b3480156105ef57600080fd5b506102ad6110ac565b34801561060457600080fd5b506102ad610613366004611f72565b6110b9565b34801561062457600080fd5b506103316111e0565b34801561063957600080fd5b50610260610648366004611d88565b6111e6565b34801561065957600080fd5b50610296610668366004611f2c565b6111fb565b34801561067957600080fd5b50610260610688366004611da2565b61124d565b34801561069957600080fd5b506102966106a8366004611f2c565b61127b565b3480156106b957600080fd5b506102966106c8366004611d88565b6112cd565b60006001600160e01b0319821663780e9d6360e01b14806106f257506106f28261133b565b90505b919050565b61070261137b565b6001600160a01b0316610713610f37565b6001600160a01b0316146107425760405162461bcd60e51b815260040161073990612480565b60405180910390fd5b6010805460ff1916911515919091179055565b606060008054610764906126ce565b80601f0160208091040260200160405190810160405280929190818152602001828054610790906126ce565b80156107dd5780601f106107b2576101008083540402835291602001916107dd565b820191906000526020600020905b8154815290600101906020018083116107c057829003601f168201915b5050505050905090565b60006107f28261137f565b61080e5760405162461bcd60e51b815260040161073990612434565b506000908152600460205260409020546001600160a01b031690565b60118054610837906126ce565b80601f0160208091040260200160405190810160405280929190818152602001828054610863906126ce565b80156108b05780601f10610885576101008083540402835291602001916108b0565b820191906000526020600020905b81548152906001019060200180831161089357829003601f168201915b505050505081565b60006108c382610e22565b9050806001600160a01b0316836001600160a01b031614156108f75760405162461bcd60e51b81526004016107399061254d565b806001600160a01b031661090961137b565b6001600160a01b0316148061092557506109258161068861137b565b6109415760405162461bcd60e51b81526004016107399061230f565b61094b838361139c565b505050565b600d5481565b60085490565b600f5481565b61097361096d61137b565b8261140a565b61098f5760405162461bcd60e51b81526004016107399061258e565b61094b83838361148f565b60006109a583610e64565b82106109c35760405162461bcd60e51b81526004016107399061212e565b506001600160a01b03919091166000908152600660209081526040808320938352929052205490565b6109f461137b565b6001600160a01b0316610a05610f37565b6001600160a01b031614610a2b5760405162461bcd60e51b815260040161073990612480565b6001600160a01b03166000908152601260205260409020805460ff19169055565b610a5461137b565b6001600160a01b0316610a65610f37565b6001600160a01b031614610a8b5760405162461bcd60e51b815260040161073990612480565b6000610a95610f37565b6001600160a01b031647604051610aab90612078565b60006040518083038185875af1925050503d8060008114610ae8576040519150601f19603f3d011682016040523d82523d6000602084013e610aed565b606091505b5050905080610afb57600080fd5b50565b6000610b08610956565b60105490915060ff1615610b1b57600080fd5b60008211610b2857600080fd5b600f54821115610b3757600080fd5b600e54610b448383612640565b1115610b4f57600080fd5b610b57610f37565b6001600160a01b0316336001600160a01b031614610ba5573360009081526012602052604090205460ff161515600114610ba55781600d54610b99919061266c565b341015610ba557600080fd5b60015b828111610bd457610bc284610bbd8385612640565b6115bc565b80610bcc81612709565b915050610ba8565b50505050565b61094b83838360405180602001604052806000815250611073565b60606000610c0283610e64565b905060008167ffffffffffffffff811115610c2d57634e487b7160e01b600052604160045260246000fd5b604051908082528060200260200182016040528015610c56578160200160208202803683370190505b50905060005b82811015610cab57610c6e858261099a565b828281518110610c8e57634e487b7160e01b600052603260045260246000fd5b602090810291909101015280610ca381612709565b915050610c5c565b509392505050565b610cbb61137b565b6001600160a01b0316610ccc610f37565b6001600160a01b031614610cf25760405162461bcd60e51b815260040161073990612480565b600d55565b610cff61137b565b6001600160a01b0316610d10610f37565b6001600160a01b031614610d365760405162461bcd60e51b815260040161073990612480565b6001600160a01b03166000908152601260205260409020805460ff19166001179055565b6000610d64610956565b8210610d825760405162461bcd60e51b8152600401610739906125df565b60088281548110610da357634e487b7160e01b600052603260045260246000fd5b90600052602060002001549050919050565b601054610100900460ff1681565b610dcb61137b565b6001600160a01b0316610ddc610f37565b6001600160a01b031614610e025760405162461bcd60e51b815260040161073990612480565b8051610e1590600b906020840190611c58565b5050565b60105460ff1681565b6000818152600260205260408120546001600160a01b0316806106f25760405162461bcd60e51b8152600401610739906123b6565b600b8054610837906126ce565b60006001600160a01b038216610e8c5760405162461bcd60e51b81526004016107399061236c565b506001600160a01b031660009081526003602052604090205490565b610eb061137b565b6001600160a01b0316610ec1610f37565b6001600160a01b031614610ee75760405162461bcd60e51b815260040161073990612480565b610ef160006115d6565b565b610efb61137b565b6001600160a01b0316610f0c610f37565b6001600160a01b031614610f325760405162461bcd60e51b815260040161073990612480565b600f55565b600a546001600160a01b031690565b606060018054610764906126ce565b610f5d61137b565b6001600160a01b0316826001600160a01b03161415610f8e5760405162461bcd60e51b81526004016107399061228c565b8060056000610f9b61137b565b6001600160a01b03908116825260208083019390935260409182016000908120918716808252919093529120805460ff191692151592909217909155610fdf61137b565b6001600160a01b03167f17307eab39ab6107e8899845ad3d59bd9653f200f220920489ca2b5937696c31836040516110179190612110565b60405180910390a35050565b61102b61137b565b6001600160a01b031661103c610f37565b6001600160a01b0316146110625760405162461bcd60e51b815260040161073990612480565b6010805461ff001916610100179055565b61108461107e61137b565b8361140a565b6110a05760405162461bcd60e51b81526004016107399061258e565b610bd484848484611628565b600c8054610837906126ce565b60606110c48261137f565b6110e05760405162461bcd60e51b8152600401610739906124fe565b601054610100900460ff1661118157601180546110fc906126ce565b80601f0160208091040260200160405190810160405280929190818152602001828054611128906126ce565b80156111755780601f1061114a57610100808354040283529160200191611175565b820191906000526020600020905b81548152906001019060200180831161115857829003601f168201915b505050505090506106f5565b600061118b61165b565b905060008151116111ab57604051806020016040528060008152506111d9565b806111b58461166a565b600c6040516020016111c993929190611fb6565b6040516020818303038152906040525b9392505050565b600e5481565b60126020526000908152604090205460ff1681565b61120361137b565b6001600160a01b0316611214610f37565b6001600160a01b03161461123a5760405162461bcd60e51b815260040161073990612480565b8051610e1590600c906020840190611c58565b6001600160a01b03918216600090815260056020908152604080832093909416825291909152205460ff1690565b61128361137b565b6001600160a01b0316611294610f37565b6001600160a01b0316146112ba5760405162461bcd60e51b815260040161073990612480565b8051610e15906011906020840190611c58565b6112d561137b565b6001600160a01b03166112e6610f37565b6001600160a01b03161461130c5760405162461bcd60e51b815260040161073990612480565b6001600160a01b0381166113325760405162461bcd60e51b8152600401610739906121cb565b610afb816115d6565b60006001600160e01b031982166380ac58cd60e01b148061136c57506001600160e01b03198216635b5e139f60e01b145b806106f257506106f282611785565b3390565b6000908152600260205260409020546001600160a01b0316151590565b600081815260046020526040902080546001600160a01b0319166001600160a01b03841690811790915581906113d182610e22565b6001600160a01b03167f8c5be1e5ebec7d5bd14f71427d1e84f3dd0314c0f7b2291e5b200ac8c7c3b92560405160405180910390a45050565b60006114158261137f565b6114315760405162461bcd60e51b8152600401610739906122c3565b600061143c83610e22565b9050806001600160a01b0316846001600160a01b031614806114775750836001600160a01b031661146c846107e7565b6001600160a01b0316145b806114875750611487818561124d565b949350505050565b826001600160a01b03166114a282610e22565b6001600160a01b0316146114c85760405162461bcd60e51b8152600401610739906124b5565b6001600160a01b0382166114ee5760405162461bcd60e51b815260040161073990612248565b6114f983838361179e565b61150460008261139c565b6001600160a01b038316600090815260036020526040812080546001929061152d90849061268b565b90915550506001600160a01b038216600090815260036020526040812080546001929061155b908490612640565b909155505060008181526002602052604080822080546001600160a01b0319166001600160a01b0386811691821790925591518493918716917fddf252ad1be2c89b69c2b068fc378daa952ba7f163c4a11628f55a4df523b3ef91a4505050565b610e15828260405180602001604052806000815250611827565b600a80546001600160a01b038381166001600160a01b0319831681179093556040519116919082907f8be0079c531659141344cd1fd0a4f28419497f9722a3daafe3b4186f6b6457e090600090a35050565b61163384848461148f565b61163f8484848461185a565b610bd45760405162461bcd60e51b815260040161073990612179565b6060600b8054610764906126ce565b60608161168f57506040805180820190915260018152600360fc1b60208201526106f5565b8160005b81156116b957806116a381612709565b91506116b29050600a83612658565b9150611693565b60008167ffffffffffffffff8111156116e257634e487b7160e01b600052604160045260246000fd5b6040519080825280601f01601f19166020018201604052801561170c576020820181803683370190505b5090505b84156114875761172160018361268b565b915061172e600a86612724565b611739906030612640565b60f81b81838151811061175c57634e487b7160e01b600052603260045260246000fd5b60200101906001600160f81b031916908160001a90535061177e600a86612658565b9450611710565b6001600160e01b031981166301ffc9a760e01b14919050565b6117a983838361094b565b6001600160a01b0383166117c5576117c081611975565b6117e8565b816001600160a01b0316836001600160a01b0316146117e8576117e883826119b9565b6001600160a01b038216611804576117ff81611a56565b61094b565b826001600160a01b0316826001600160a01b03161461094b5761094b8282611b2f565b6118318383611b73565b61183e600084848461185a565b61094b5760405162461bcd60e51b815260040161073990612179565b600061186e846001600160a01b0316611c52565b1561196a57836001600160a01b031663150b7a0261188a61137b565b8786866040518563ffffffff1660e01b81526004016118ac949392919061208f565b602060405180830381600087803b1580156118c657600080fd5b505af19250505080156118f6575060408051601f3d908101601f191682019092526118f391810190611f10565b60015b611950573d808015611924576040519150601f19603f3d011682016040523d82523d6000602084013e611929565b606091505b5080516119485760405162461bcd60e51b815260040161073990612179565b805181602001fd5b6001600160e01b031916630a85bd0160e11b149050611487565b506001949350505050565b600880546000838152600960205260408120829055600182018355919091527ff3f7a9fe364faab93b216da50a3214154f22a0a2b415b23a84c8169e8b636ee30155565b600060016119c684610e64565b6119d0919061268b565b600083815260076020526040902054909150808214611a23576001600160a01b03841660009081526006602090815260408083208584528252808320548484528184208190558352600790915290208190555b5060009182526007602090815260408084208490556001600160a01b039094168352600681528383209183525290812055565b600854600090611a689060019061268b565b60008381526009602052604081205460088054939450909284908110611a9e57634e487b7160e01b600052603260045260246000fd5b906000526020600020015490508060088381548110611acd57634e487b7160e01b600052603260045260246000fd5b6000918252602080832090910192909255828152600990915260408082208490558582528120556008805480611b1357634e487b7160e01b600052603160045260246000fd5b6001900381819060005260206000200160009055905550505050565b6000611b3a83610e64565b6001600160a01b039093166000908152600660209081526040808320868452825280832085905593825260079052919091209190915550565b6001600160a01b038216611b995760405162461bcd60e51b8152600401610739906123ff565b611ba28161137f565b15611bbf5760405162461bcd60e51b815260040161073990612211565b611bcb6000838361179e565b6001600160a01b0382166000908152600360205260408120805460019290611bf4908490612640565b909155505060008181526002602052604080822080546001600160a01b0319166001600160a01b03861690811790915590518392907fddf252ad1be2c89b69c2b068fc378daa952ba7f163c4a11628f55a4df523b3ef908290a45050565b3b151590565b828054611c64906126ce565b90600052602060002090601f016020900481019282611c865760008555611ccc565b82601f10611c9f57805160ff1916838001178555611ccc565b82800160010185558215611ccc579182015b82811115611ccc578251825591602001919060010190611cb1565b50611cd8929150611cdc565b5090565b5b80821115611cd85760008155600101611cdd565b600067ffffffffffffffff80841115611d0c57611d0c612764565b604051601f8501601f191681016020018281118282101715611d3057611d30612764565b604052848152915081838501861015611d4857600080fd5b8484602083013760006020868301015250509392505050565b80356001600160a01b03811681146106f557600080fd5b803580151581146106f557600080fd5b600060208284031215611d99578081fd5b6111d982611d61565b60008060408385031215611db4578081fd5b611dbd83611d61565b9150611dcb60208401611d61565b90509250929050565b600080600060608486031215611de8578081fd5b611df184611d61565b9250611dff60208501611d61565b9150604084013590509250925092565b60008060008060808587031215611e24578081fd5b611e2d85611d61565b9350611e3b60208601611d61565b925060408501359150606085013567ffffffffffffffff811115611e5d578182fd5b8501601f81018713611e6d578182fd5b611e7c87823560208401611cf1565b91505092959194509250565b60008060408385031215611e9a578182fd5b611ea383611d61565b9150611dcb60208401611d78565b60008060408385031215611ec3578182fd5b611ecc83611d61565b946020939093013593505050565b600060208284031215611eeb578081fd5b6111d982611d78565b600060208284031215611f05578081fd5b81356111d98161277a565b600060208284031215611f21578081fd5b81516111d98161277a565b600060208284031215611f3d578081fd5b813567ffffffffffffffff811115611f53578182fd5b8201601f81018413611f63578182fd5b61148784823560208401611cf1565b600060208284031215611f83578081fd5b5035919050565b60008151808452611fa28160208601602086016126a2565b601f01601f19169290920160200192915050565b600084516020611fc98285838a016126a2565b855191840191611fdc8184848a016126a2565b8554920191839060028104600180831680611ff857607f831692505b85831081141561201657634e487b7160e01b88526022600452602488fd5b80801561202a576001811461203b57612067565b60ff19851688528388019550612067565b6120448b612634565b895b8581101561205f5781548a820152908401908801612046565b505083880195505b50939b9a5050505050505050505050565b90565b6001600160a01b0391909116815260200190565b6001600160a01b03858116825284166020820152604081018390526080606082018190526000906120c290830184611f8a565b9695505050505050565b6020808252825182820181905260009190848201906040850190845b81811015612104578351835292840192918401916001016120e8565b50909695505050505050565b901515815260200190565b6000602082526111d96020830184611f8a565b6020808252602b908201527f455243373231456e756d657261626c653a206f776e657220696e646578206f7560408201526a74206f6620626f756e647360a81b606082015260800190565b60208082526032908201527f4552433732313a207472616e7366657220746f206e6f6e20455243373231526560408201527131b2b4bb32b91034b6b83632b6b2b73a32b960711b606082015260800190565b60208082526026908201527f4f776e61626c653a206e6577206f776e657220697320746865207a65726f206160408201526564647265737360d01b606082015260800190565b6020808252601c908201527f4552433732313a20746f6b656e20616c7265616479206d696e74656400000000604082015260600190565b60208082526024908201527f4552433732313a207472616e7366657220746f20746865207a65726f206164646040820152637265737360e01b606082015260800190565b60208082526019908201527f4552433732313a20617070726f766520746f2063616c6c657200000000000000604082015260600190565b6020808252602c908201527f4552433732313a206f70657261746f7220717565727920666f72206e6f6e657860408201526b34b9ba32b73a103a37b5b2b760a11b606082015260800190565b60208082526038908201527f4552433732313a20617070726f76652063616c6c6572206973206e6f74206f7760408201527f6e6572206e6f7220617070726f76656420666f7220616c6c0000000000000000606082015260800190565b6020808252602a908201527f4552433732313a2062616c616e636520717565727920666f7220746865207a65604082015269726f206164647265737360b01b606082015260800190565b60208082526029908201527f4552433732313a206f776e657220717565727920666f72206e6f6e657869737460408201526832b73a103a37b5b2b760b91b606082015260800190565b6020808252818101527f4552433732313a206d696e7420746f20746865207a65726f2061646472657373604082015260600190565b6020808252602c908201527f4552433732313a20617070726f76656420717565727920666f72206e6f6e657860408201526b34b9ba32b73a103a37b5b2b760a11b606082015260800190565b6020808252818101527f4f776e61626c653a2063616c6c6572206973206e6f7420746865206f776e6572604082015260600190565b60208082526029908201527f4552433732313a207472616e73666572206f6620746f6b656e2074686174206960408201526839903737ba1037bbb760b91b606082015260800190565b6020808252602f908201527f4552433732314d657461646174613a2055524920717565727920666f72206e6f60408201526e3732bc34b9ba32b73a103a37b5b2b760891b606082015260800190565b60208082526021908201527f4552433732313a20617070726f76616c20746f2063757272656e74206f776e656040820152603960f91b606082015260800190565b60208082526031908201527f4552433732313a207472616e736665722063616c6c6572206973206e6f74206f6040820152701ddb995c881b9bdc88185c1c1c9bdd9959607a1b606082015260800190565b6020808252602c908201527f455243373231456e756d657261626c653a20676c6f62616c20696e646578206f60408201526b7574206f6620626f756e647360a01b606082015260800190565b90815260200190565b60009081526020902090565b6000821982111561265357612653612738565b500190565b6000826126675761266761274e565b500490565b600081600019048311821515161561268657612686612738565b500290565b60008282101561269d5761269d612738565b500390565b60005b838110156126bd5781810151838201526020016126a5565b83811115610bd45750506000910152565b6002810460018216806126e257607f821691505b6020821081141561270357634e487b7160e01b600052602260045260246000fd5b50919050565b600060001982141561271d5761271d612738565b5060010190565b6000826127335761273361274e565b500690565b634e487b7160e01b600052601160045260246000fd5b634e487b7160e01b600052601260045260246000fd5b634e487b7160e01b600052604160045260246000fd5b6001600160e01b031981168114610afb57600080fdfea2646970667358221220bb0706198f2ac7b4d26af1afb750da3dc9aa427c0ba9f520c80541dd129bd69564736f6c63430008000033",
  "linkReferences": {},
  "deployedLinkReferences": {}
}